:100000000C9434000C9449000C9449000C94490061
:100010000C9449000C9449000C9449000C9449003C
:100020000C9449000C9449000C9449000C9449002C
:100030000C9449000C9449000C9449000C9449001C
:100040000C9449000C9449000C9449000C9449000C
:100050000C9449000C9449000C9449000C944900FC
:100060000C9449000C94490011241FBECFEFD8E036
:10007000DEBFCDBF11E0A0E0B1E0EEEBF4E002C0E6
:1000800005900D92A430B107D9F70E94A7000C94F7
:100090005D020C94000014BC23E025BD019708F418
:1000A000089516BC26B52A3FE8F3F8CFCF93DF9327
:1000B0008AB18C618AB987B187B9C3E0D0E05A9A16
:1000C00088EC90E00E944B005A985B9A88EC90E094
:1000D0000E944B005B985C9A88EC90E00E944B0079
:1000E0005C98219761F7DF91CF910895CF93DF93CB
:1000F000EC0184E690E00E944B000E94EA01BE0100
:100100000E947601DF91CF9108958AB18C618AB9FE
:1001100087B1887F87B98BB18C618BB988EC90E00F
:100120000E944B008BB1837E8BB988EC90E00E94DB
:100130004B008BB18C618BB988EC90E00E944B0036
:100140008BB1837E8BB988EC90E00C944B00CF93FD
:10015000DF93CDB7DEB728970FB6F894DEBF0FBE9A
:10016000CDBF86B590E00E94EF018AB18C618AB95B
:1001700087B187B9309BFECF319BFCCF0E945600E0
:1001800083E090E00E9476009A83898383E090E088
:100190000E9476009C838B8383E090E00E9476002F
:1001A0009E838D83EE24E394F12CFE0131966F0142
:1001B00010E000E0F601819191916F01813091058D
:1001C00009F46BC08230910509F46EC0892B51F49B
:1001D0005A9A8CE291E00E944B005A988CE291E08E
:1001E0000E944B000F5F1F4F0E151F0519F710E0FF
:1001F00000E0DD24D394309B15C0F801EE0FFF1F03
:1002000081E090E08C0F9D1FE80FF91F80819181A4
:10021000892B09F450C00E9485008CE291E00E9475
:100220004B00D12C319B15C0F801EE0FFF1F81E070
:1002300090E08C0F9D1FE80FF91F8081918101973D
:1002400009F440C00E9485008CE291E00E944B00BE
:10025000D12C329B14C0F801EE0FFF1F81E090E01B
:100260008C0F9D1FE80FF91F80819181029789F102
:100270000E9485008CE291E00E944B00D12C0E156B
:100280001F050CF4B8CF0330110551F55B9A84EFCC
:1002900091E00E944B005B986DCF5B9A8CE291E0FD
:1002A0000E944B005B989ACF5C9A8CE291E00E948E
:1002B0004B005C9893CF0F5F1F4F8CE291E00E9440
:1002C0004B00B0CF0F5F1F4F8CE291E00E944B00BC
:1002D000C0CF0F5F1F4F8CE291E00E944B00CFCF49
:1002E0009FEFE91AF90AD11060CF44CF97FB072E90
:1002F00016F4009407D077FD09D00E948A0107FC0C
:1003000005D03EF4909581959F4F08957095619525
:100310007F4F0895AA1BBB1B51E107C0AA1FBB1F3B
:10032000A617B70710F0A61BB70B881F991F5A9581
:10033000A9F780959095BC01CD0108958F929F9269
:10034000AF92BF92CF92DF92EF92FF92CF93DF9363
:10035000EC01688179818A819B8161157105810534
:10036000910521F464E279ED8BE597E02DE133EF1F
:1003700041E050E00E94FA0149015A019B01AC01A1
:10038000A7EAB1E40E9419026B017C01ACEEB4EF64
:10039000A50194010E942702DC01CB018C0D9D1D5B
:1003A000AE1DBF1DB7FF03C00197A109B0488883E8
:1003B0009983AA83BB839F77DF91CF91FF90EF90C2
:1003C000DF90CF90BF90AF909F908F9008950E9444
:1003D0009E01089580E091E00E949E010895B0E0A2
:1003E000A0E08093000190930101A0930201B093DB
:1003F00003010895052E97FB1EF400940E9411023C
:1004000057FD07D00E942C0207FC03D04EF40C9439
:10041000110250954095309521953F4F4F4F5F4FBA
:10042000089590958095709561957F4F8F4F9F4F60
:1004300008950E944E02A59F900DB49F900DA49F19
:10044000800D911D11240895B7FF0C9419020E948C
:100450001902821B930B0895A1E21A2EAA1BBB1B43
:10046000FD010DC0AA1FBB1FEE1FFF1FA217B30780
:10047000E407F50720F0A21BB30BE40BF50B661F96
:10048000771F881F991F1A9469F76095709580955A
:1004900090959B01AC01BD01CF010895A29FB001D1
:1004A000B39FC001A39F700D811D1124911DB29FA8
:0E04B000700D811D1124911D0895F894FFCF49
:0404BE000100000039
:00000001FF
