:100000000C9434000C9449000C9449000C94490061
:100010000C9449000C9449000C9449000C9449003C
:100020000C9449000C9449000C9449000C9449002C
:100030000C9449000C9449000C9449000C9449001C
:100040000C9449000C9449000C9449000C9449000C
:100050000C9449000C9449000C9449000C944900FC
:100060000C9449000C94490011241FBECFEFD8E036
:10007000DEBFCDBF11E0A0E0B1E0E0E2F5E002C0FC
:1000800005900D92A430B107D9F70E94A2010C94FB
:100090008E020C94000014BC23E025BD019708F4E7
:1000A000089516BC26B52A3FE8F3F8CFCF93DF9327
:1000B000C3E0D0E05A9A88EC90E00E944B005A9836
:1000C0005B9A88EC90E00E944B005B985C9A88EC0D
:1000D00090E00E944B005C98219761F7DF91CF91EF
:1000E0000895CF93DF93EC010E941B02BE010E9492
:1000F000A701DF91CF9108958AB18C618AB987B148
:10010000887F87B98BB18C618BB988EC90E00E94B5
:100110004B008BB1837E8BB988EC90E00E944B0042
:100120008BB18C618BB988EC90E00E944B008BB155
:10013000837E8BB988EC90E00C944B008130910564
:1001400079F08230910599F0892BC1F45A9A8CE2AA
:1001500091E00E944B005A988CE291E00C944B0085
:100160005B9A8CE291E00E944B005B98F5CF5C9A21
:100170008CE291E00E944B005C98EECF0895EF92E4
:10018000FF920F931F93CF93DF938C017B0186B176
:100190008770E9F7D0E0C0E0CE15DF0514F081E00C
:1001A00012C0309B1FC084E190E00E944B00309B46
:1001B000F3CFFE01EE0FFF1FE00FF11F8081918151
:1001C000892B41F080E0DF91CF911F910F91FF903B
:1001D000EF90089521963099FECF84E190E00E943F
:1001E0004B00DACF319B13C084E190E00E944B00BA
:1001F000319BD2CFFE01EE0FFF1FE00FF11F808178
:1002000091810197F9F621963199FECFE6CF329B85
:10021000C3CF84E190E00E944B00329BBDCFFE0132
:10022000EE0FFF1FE00FF11F80819181029751F6C1
:1002300021963299FECFD1CFCF92DF92EF92FF92EB
:100240000F931F93CF93DF93CDB7DEB728970FB6E9
:10025000F894DEBF0FBECDBF309B3EC0319B3CC08B
:100260000E9456007E0189E0E80EF11C8E010F5FAE
:100270001F4F83E090E00E947100F80181939193F9
:100280008F01EE16FF06A9F701E010E088EC90E080
:100290000E944B00CE0101966C01F12CE12CF6017D
:1002A000819191916F010E949E00FFEFEF1AFF0A6A
:1002B0000E151F05A1F7B801CE0101960E94BF00DF
:1002C000882341F00F5F1F4F05301105F9F60E949A
:1002D0008F0102C00E947C0028960FB6F894DEBF02
:1002E0000FBECDBFDF91CF911F910F91FF90EF9087
:1002F000DF90CF90089514BC83E085BD8FE39CE927
:100300000197F1F700C0000086B590E00E9420023E
:100310008AB18C618AB987B1887F87B90895CF93F4
:10032000DF93C3E0D0E05B9A88EC90E00E944B0042
:100330005B9888EC90E00E944B002197A1F7DF9139
:10034000CF9108950E947B010E941C01FDCF97FB75
:10035000072E16F4009407D077FD09D00E94BB0148
:1003600007FC05D03EF4909581959F4F08957095B8
:1003700061957F4F0895AA1BBB1B51E107C0AA1FBF
:10038000BB1FA617B70710F0A61BB70B881F991F36
:100390005A95A9F780959095BC01CD0108958F924B
:1003A0009F92AF92BF92CF92DF92EF92FF92CF9344
:1003B000DF93EC01688179818A819B8161157105E8
:1003C0008105910521F464E279ED8BE597E02DE15B
:1003D00033EF41E050E00E942B0249015A019B019A
:1003E000AC01A7EAB1E40E944A026B017C01ACEEC9
:1003F000B4EFA50194010E945802DC01CB018C0DE1
:100400009D1DAE1DBF1DB7FF03C00197A109B048D8
:1004100088839983AA83BB839F77DF91CF91FF90D5
:10042000EF90DF90CF90BF90AF909F908F90089506
:100430000E94CF01089580E091E00E94CF010895CD
:10044000B0E0A0E08093000190930101A09302012D
:10045000B09303010895052E97FB1EF400940E94AB
:10046000420257FD07D00E945D0207FC03D04EF404
:100470000C94420250954095309521953F4F4F4F37
:100480005F4F089590958095709561957F4F8F4F40
:100490009F4F08950E947F02A59F900DB49F900DDD
:1004A000A49F800D911D11240895B7FF0C944A025A
:1004B0000E944A02821B930B0895A1E21A2EAA1BE6
:1004C000BB1BFD010DC0AA1FBB1FEE1FFF1FA21704
:1004D000B307E407F50720F0A21BB30BE40BF50B01
:1004E000661F771F881F991F1A9469F7609570958A
:1004F000809590959B01AC01BD01CF010895A29F0D
:10050000B001B39FC001A39F700D811D1124911DE7
:10051000B29F700D811D1124911D0895F894FFCF95
:0405200001000000D6
:00000001FF
