:100000000C9434000C9449000C9449000C94490061
:100010000C9449000C9449000C9449000C9449003C
:100020000C9449000C9449000C9449000C9449002C
:100030000C9449000C9449000C9449000C9449001C
:100040000C9449000C9449000C9449000C9449000C
:100050000C9449000C9449000C9449000C944900FC
:100060000C9449000C94490011241FBECFEFD8E036
:10007000DEBFCDBF11E0A0E0B1E0EEE2F4E002C0EF
:1000800005900D92A430B107D9F70E9498000C9406
:1000900015020C94000014BC23E025BD019708F460
:1000A000089516BC26B52A3FE8F3F8CFCF93DF9327
:1000B0008AB18C618AB987B187B9C3E0D0E05A9A16
:1000C00088EC90E00E944B005A985B9A88EC90E094
:1000D0000E944B005B985C9A88EC90E00E944B0079
:1000E0005C98219761F7DF91CF910895CF93DF93CB
:1000F000EC0184E690E00E944B000E94A201BE0148
:100100000E942E01DF91CF9108958AB18C618AB946
:1001100087B187B98BB18C618BB988EC90E00E9474
:100120004B008BB18BB988EC90E00E944B00F2CF72
:10013000CF93DF93CDB7DEB728970FB6F894DEBF25
:100140000FBECDBF86B590E00E94A7018AB18C6139
:100150008AB987B187B96E0187E0C80ED11C309B80
:10016000FECF319BFCCF0E94560083E090E00E94BE
:1001700076009A83898383E090E00E9476009C83D6
:100180008B8383E090E00E9476009E838D838E01B6
:100190000F5F1F4F7801F801819191918F0181309C
:1001A000910509F18230910529F1892B51F45A9A70
:1001B0008CE291E00E944B005A988CE291E00E9400
:1001C0004B00C016D10639F790E080E083309105EE
:1001D000C4F0309B3DC05A9A319B3CC05B9A329B25
:1001E0003BC05C9ABCCF5B9A8CE291E00E944B00D2
:1001F0005B98E3CF5C9A8CE291E00E944B005C98A4
:10020000DCCF309B0CC0FC01EE0FFF1FEE0DFF1D7D
:1002100020813181232B11F00E9485000196319BB2
:100220000AC0FC01EE0FFF1FEE0DFF1D2081318182
:10023000232B91F70196329BC9CFFC01EE0FFF1FD4
:10024000EE0DFF1D20813181232B31F70196BECFAA
:100250005A98C2CF5B98C3CF5C9881CF97FB072E8B
:1002600016F4009407D077FD09D00E94420107FCE4
:1002700005D03EF4909581959F4F089570956195B6
:100280007F4F0895AA1BBB1B51E107C0AA1FBB1FCC
:10029000A617B70710F0A61BB70B881F991F5A9512
:1002A000A9F780959095BC01CD0108958F929F92FA
:1002B000AF92BF92CF92DF92EF92FF92CF93DF93F4
:1002C000EC01688179818A819B81611571058105C5
:1002D000910521F464E279ED8BE597E02DE133EFB0
:1002E00041E050E00E94B20149015A019B01AC017A
:1002F000A7EAB1E40E94D1016B017C01ACEEB4EF3E
:10030000A50194010E94DF01DC01CB018C0D9D1D34
:10031000AE1DBF1DB7FF03C00197A109B048888378
:100320009983AA83BB839F77DF91CF91FF90EF9052
:10033000DF90CF90BF90AF909F908F9008950E94D4
:100340005601089580E091E00E9456010895B0E0C2
:10035000A0E08093000190930101A0930201B0936B
:1003600003010895052E97FB1EF400940E94C90115
:1003700057FD07D00E94E40107FC03D04EF40C9413
:10038000C90150954095309521953F4F4F4F5F4F94
:10039000089590958095709561957F4F8F4F9F4FF1
:1003A00008950E940602A59F900DB49F900DA49FF2
:1003B000800D911D11240895B7FF0C94D1010E9466
:1003C000D101821B930B0895A1E21A2EAA1BBB1B1D
:1003D000FD010DC0AA1FBB1FEE1FFF1FA217B30711
:1003E000E407F50720F0A21BB30BE40BF50B661F27
:1003F000771F881F991F1A9469F7609570958095EB
:1004000090959B01AC01BD01CF010895A29FB00161
:10041000B39FC001A39F700D811D1124911DB29F38
:0E042000700D811D1124911D0895F894FFCFD9
:04042E0001000000C9
:00000001FF
