:100000000C9434000C9449000C9449000C94490061
:100010000C9449000C9449000C9449000C9449003C
:100020000C9449000C9449000C9449000C9449002C
:100030000C9449000C9449000C9449000C9449001C
:100040000C9449000C9449000C9449000C9449000C
:100050000C9449000C9449000C9449000C944900FC
:100060000C9449000C94490011241FBECFEFD8E036
:10007000DEBFCDBF11E0A0E0B1E0E6E7F4E002C0F2
:1000800005900D92A430B107D9F70E94A7000C94F7
:1000900039020C94000014BC23E025BD019708F43C
:1000A000089516BC26B52A3FE8F3F8CFCF93DF9327
:1000B0008AB18C618AB987B187B9C3E0D0E05A9A16
:1000C00088EC90E00E944B005A985B9A88EC90E094
:1000D0000E944B005B985C9A88EC90E00E944B0079
:1000E0005C98219761F7DF91CF910895CF93DF93CB
:1000F000EC0184E690E00E944B000E94C601BE0124
:100100000E945201DF91CF9108958AB18C618AB922
:1001100087B1887F87B98BB18C618BB988EC90E00F
:100120000E944B008BB1837E8BB988EC90E00E94DB
:100130004B008BB18C618BB988EC90E00E944B0036
:100140008BB1837E8BB988EC90E00C944B00CF93FD
:10015000DF93CDB7DEB728970FB6F894DEBF0FBE9A
:10016000CDBF86B590E00E94CB018AB18C618AB97F
:1001700087B187B96E0187E0C80ED11C309BFECFD6
:10018000319BFCCF0E94560083E090E00E947600F5
:100190009A83898383E090E00E9476009C838B831E
:1001A00083E090E00E9476009E838D838E010F5F36
:1001B0001F4F7801F801819191918F018130910554
:1001C00049F18230910569F1892B51F45A9A8CE2F8
:1001D00091E00E944B005A988CE291E00E944B0003
:1001E000C016D10639F710E000E003301105BCF568
:1001F000309B24C0F801EE0FFF1FEE0DFF1D808124
:100200009181892BA9F00E9485008CE291E00E94E7
:100210004B00B4CF5B9A8CE291E00E944B005B985C
:10022000DBCF5C9A8CE291E00E944B005C98D4CFCB
:100230000F5F1F4F8CE291E00E944B00319B20C06A
:10024000F801EE0FFF1FEE0DFF1D808191810197D8
:1002500089F00E9485008CE291E00E944B000330FF
:10026000110509F08BCF5B9A84EF91E00E944B005F
:100270005B9884CF0F5F1F4F8CE291E00E944B0090
:10028000329BB3CFF801EE0FFF1FEE0DFF1D8081F3
:1002900091810297F1F60F5F1F4F8CE291E00E946F
:1002A0004B00A3CF97FB072E16F4009407D077FDE1
:1002B00009D00E94660107FC05D03EF49095819517
:1002C0009F4F0895709561957F4F0895AA1BBB1BA2
:1002D00051E107C0AA1FBB1FA617B70710F0A61B46
:1002E000B70B881F991F5A95A9F780959095BC0167
:1002F000CD0108958F929F92AF92BF92CF92DF92DD
:10030000EF92FF92CF93DF93EC01688179818A812C
:100310009B81611571058105910521F464E279EDF8
:100320008BE597E02DE133EF41E050E00E94D601EC
:1003300049015A019B01AC01A7EAB1E40E94F50111
:100340006B017C01ACEEB4EFA50194010E940302A5
:10035000DC01CB018C0D9D1DAE1DBF1DB7FF03C081
:100360000197A109B04888839983AA83BB839F77AB
:10037000DF91CF91FF90EF90DF90CF90BF90AF9043
:100380009F908F9008950E947A01089580E091E0F7
:100390000E947A010895B0E0A0E08093000190935C
:1003A0000101A0930201B09303010895052E97FB6C
:1003B0001EF400940E94ED0157FD07D00E94080230
:1003C00007FC03D04EF40C94ED0150954095309508
:1003D00021953F4F4F4F5F4F0895909580957095B1
:1003E00061957F4F8F4F9F4F08950E942A02A59FCE
:1003F000900DB49F900DA49F800D911D1124089520
:10040000B7FF0C94F5010E94F501821B930B089530
:10041000A1E21A2EAA1BBB1BFD010DC0AA1FBB1F08
:10042000EE1FFF1FA217B307E407F50720F0A21B7A
:10043000B30BE40BF50B661F771F881F991F1A94E7
:1004400069F760957095809590959B01AC01BD0111
:10045000CF010895A29FB001B39FC001A39F700D6B
:10046000811D1124911DB29F700D811D1124911DBC
:060470000895F894FFCF8F
:040476000100000081
:00000001FF
